{
  "transactions": [
    {
      "hash": "0x07f9f89eac7a19d0b886d3e97692eeb9e569ab42156d81cf6a8a714e8a638426",
      "transactionType": "CALL",
      "contractName": null,
      "contractAddress": "0x249e2dcf1c601b3fe319a2e7a5465a41c03c3eaf",
      "function": "mint(address,uint256)",
      "arguments": [
        "0x0964E6d624D92133Fe95238cd3a91f46f5461064",
        "1000000000000000000000"
      ],
      "transaction": {
        "from": "0x0964e6d624d92133fe95238cd3a91f46f5461064",
        "to": "0x249e2dcf1c601b3fe319a2e7a5465a41c03c3eaf",
        "gas": "0x173ef",
        "value": "0x0",
        "input": "0x40c10f190000000000000000000000000964e6d624d92133fe95238cd3a91f46f546106400000000000000000000000000000000000000000000003635c9adc5dea00000",
        "nonce": "0x2",
        "chainId": "0xaa36a7"
      },
      "additionalContracts": [],
      "isFixedGasLimit": false
    }
  ],
  "receipts": [
    {
      "status": "0x1",
      "cumulativeGasUsed": "0xab75ca",
      "logs": [
        {
          "address": "0x249e2dcf1c601b3fe319a2e7a5465a41c03c3eaf",
          "topics": [
            "0xddf252ad1be2c89b69c2b068fc378daa952ba7f163c4a11628f55a4df523b3ef",
            "0x0000000000000000000000000000000000000000000000000000000000000000",
            "0x0000000000000000000000000964e6d624d92133fe95238cd3a91f46f5461064"
          ],
          "data": "0x00000000000000000000000000000000000000000000003635c9adc5dea00000",
          "blockHash": "0xa7b953800ba9482fb165657db1aaa4994d76cd499b45e6dbd69e77581dd30edf",
          "blockNumber": "0x976b35",
          "blockTimestamp": "0x694f85d0",
          "transactionHash": "0x07f9f89eac7a19d0b886d3e97692eeb9e569ab42156d81cf6a8a714e8a638426",
          "transactionIndex": "0x40",
          "logIndex": "0x13a",
          "removed": false
        }
      ],
      "logsBloom": "0x00000000000000000000000000000000000000000000000000000000000000000000000000000000000000000000000000000200000000000000000000000000000000000000000000000008000000000000000000000000000000000000000000000000020000000000000000000800000000000000000004000010000000000000000000000000000000000000000000000000000000400000000000000000000000000000010000000000000000000000000000000000000000000020000000000022000000000000000000000000000000000000000000000000000020000000000000000000000000000000000000000000000000000000000000000000",
      "type": "0x2",
      "transactionHash": "0x07f9f89eac7a19d0b886d3e97692eeb9e569ab42156d81cf6a8a714e8a638426",
      "transactionIndex": "0x40",
      "blockHash": "0xa7b953800ba9482fb165657db1aaa4994d76cd499b45e6dbd69e77581dd30edf",
      "blockNumber": "0x976b35",
      "gasUsed": "0x10d47",
      "effectiveGasPrice": "0x17357e",
      "from": "0x0964e6d624d92133fe95238cd3a91f46f5461064",
      "to": "0x249e2dcf1c601b3fe319a2e7a5465a41c03c3eaf",
      "contractAddress": null
    }
  ],
  "libraries": [],
  "pending": [],
  "returns": {},
  "timestamp": 1766819283908,
  "chain": 11155111,
  "commit": null
}